{
  "_format": "hh-sol-artifact-1",
  "contractName": "PicturePayment",
  "sourceName": "contracts/PicturePayment.sol",
  "abi": [
    {
      "inputs": [],
      "stateMutability": "nonpayable",
      "type": "constructor"
    },
    {
      "anonymous": false,
      "inputs": [
        {
          "indexed": true,
          "internalType": "address",
          "name": "buyer",
          "type": "address"
        },
        {
          "indexed": false,
          "internalType": "uint256",
          "name": "price",
          "type": "uint256"
        }
      ],
      "name": "PicturePurchased",
      "type": "event"
    },
    {
      "inputs": [],
      "name": "getBalance",
      "outputs": [
        {
          "internalType": "uint256",
          "name": "",
          "type": "uint256"
        }
      ],
      "stateMutability": "view",
      "type": "function"
    },
    {
      "inputs": [],
      "name": "owner",
      "outputs": [
        {
          "internalType": "address",
          "name": "",
          "type": "address"
        }
      ],
      "stateMutability": "view",
      "type": "function"
    },
    {
      "inputs": [],
      "name": "purchasePicture",
      "outputs": [],
      "stateMutability": "payable",
      "type": "function"
    }
  ],
  "bytecode": "0x608060405234801561001057600080fd5b50336000806101000a81548173ffffffffffffffffffffffffffffffffffffffff021916908373ffffffffffffffffffffffffffffffffffffffff16021790555061041b806100606000396000f3fe6080604052600436106100345760003560e01c8063119feb5a1461003957806312065fe0146100435780638da5cb5b1461006e575b600080fd5b610041610099565b005b34801561004f57600080fd5b506100586101fa565b604051610065919061023f565b60405180910390f35b34801561007a57600080fd5b50610083610202565b604051610090919061029b565b60405180910390f35b600034116100dc576040517f08c379a00000000000000000000000000000000000000000000000000000000081526004016100d390610313565b60405180910390fd5b60008060009054906101000a900473ffffffffffffffffffffffffffffffffffffffff1673ffffffffffffffffffffffffffffffffffffffff163460405161012390610364565b60006040518083038185875af1925050503d8060008114610160576040519150601f19603f3d011682016040523d82523d6000602084013e610165565b606091505b50509050806101a9576040517f08c379a00000000000000000000000000000000000000000000000000000000081526004016101a0906103c5565b60405180910390fd5b3373ffffffffffffffffffffffffffffffffffffffff167fabf245354547a18027106969de69b61b10760ec31c2967fd371a3869bcc88df6346040516101ef919061023f565b60405180910390a250565b600047905090565b60008054906101000a900473ffffffffffffffffffffffffffffffffffffffff1681565b6000819050919050565b61023981610226565b82525050565b60006020820190506102546000830184610230565b92915050565b600073ffffffffffffffffffffffffffffffffffffffff82169050919050565b60006102858261025a565b9050919050565b6102958161027a565b82525050565b60006020820190506102b0600083018461028c565b92915050565b600082825260208201905092915050565b7f5061796d656e74206d7573742062652067726561746572207468616e20300000600082015250565b60006102fd601e836102b6565b9150610308826102c7565b602082019050919050565b6000602082019050818103600083015261032c816102f0565b9050919050565b600081905092915050565b50565b600061034e600083610333565b91506103598261033e565b600082019050919050565b600061036f82610341565b9150819050919050565b7f4661696c656420746f207472616e73666572207061796d656e74000000000000600082015250565b60006103af601a836102b6565b91506103ba82610379565b602082019050919050565b600060208201905081810360008301526103de816103a2565b905091905056fea2646970667358221220b288bc306a48cab65d3983632766c22d5a714b6b8dbac9d4b5eaa42f95cfc17c64736f6c63430008130033",
  "linkReferences": {},
  "deployedLinkReferences": {}
}